{
    "contractName": "FreelanceServiceManagement",
    "abi": [
        {
            "inputs": [
                {
                    "internalType": "address",
                    "name": "_freelancer",
                    "type": "address"
                },
                {
                    "internalType": "uint256",
                    "name": "_amount",
                    "type": "uint256"
                }
            ],
            "stateMutability": "nonpayable",
            "type": "constructor"
        },
        {
            "inputs": [],
            "name": "client",
            "outputs": [
                {
                    "internalType": "address",
                    "name": "",
                    "type": "address"
                }
            ],
            "stateMutability": "view",
            "type": "function",
            "constant": true
        },
        {
            "inputs": [],
            "name": "contractActive",
            "outputs": [
                {
                    "internalType": "bool",
                    "name": "",
                    "type": "bool"
                }
            ],
            "stateMutability": "view",
            "type": "function",
            "constant": true
        },
        {
            "inputs": [],
            "name": "contractAmount",
            "outputs": [
                {
                    "internalType": "uint256",
                    "name": "",
                    "type": "uint256"
                }
            ],
            "stateMutability": "view",
            "type": "function",
            "constant": true
        },
        {
            "inputs": [],
            "name": "freelancer",
            "outputs": [
                {
                    "internalType": "address",
                    "name": "",
                    "type": "address"
                }
            ],
            "stateMutability": "view",
            "type": "function",
            "constant": true
        },
        {
            "inputs": [
                {
                    "internalType": "address",
                    "name": "",
                    "type": "address"
                }
            ],
            "name": "ratings",
            "outputs": [
                {
                    "internalType": "uint256",
                    "name": "",
                    "type": "uint256"
                }
            ],
            "stateMutability": "view",
            "type": "function",
            "constant": true
        },
        {
            "inputs": [],
            "name": "deposit",
            "outputs": [],
            "stateMutability": "payable",
            "type": "function",
            "payable": true
        },
        {
            "inputs": [],
            "name": "completeWork",
            "outputs": [],
            "stateMutability": "nonpayable",
            "type": "function"
        },
        {
            "inputs": [
                {
                    "internalType": "uint256",
                    "name": "_newAmount",
                    "type": "uint256"
                }
            ],
            "name": "renewContract",
            "outputs": [],
            "stateMutability": "nonpayable",
            "type": "function"
        },
        {
            "inputs": [
                {
                    "internalType": "uint256",
                    "name": "_rating",
                    "type": "uint256"
                }
            ],
            "name": "giveFeedback",
            "outputs": [],
            "stateMutability": "nonpayable",
            "type": "function"
        }
    ],
    "bytecode": "0x60806040523480156200001157600080fd5b5060405162000e3138038062000e31833981810160405281019062000037919062000110565b336000806101000a81548173ffffffffffffffffffffffffffffffffffffffff021916908373ffffffffffffffffffffffffffffffffffffffff16021790555081600160006101000a81548173ffffffffffffffffffffffffffffffffffffffff021916908373ffffffffffffffffffffffffffffffffffffffff160217905550806002819055506001600360006101000a81548160ff0219169083151502179055505050620001c3565b600081519050620000f3816200018f565b92915050565b6000815190506200010a81620001a9565b92915050565b600080604083850312156200012457600080fd5b60006200013485828601620000e2565b92505060206200014785828601620000f9565b9150509250929050565b60006200015e8262000165565b9050919050565b600073ffffffffffffffffffffffffffffffffffffffff82169050919050565b6000819050919050565b6200019a8162000151565b8114620001a657600080fd5b50565b620001b48162000185565b8114620001c057600080fd5b50565b610c5e80620001d36000396000f3fe6080604052600436106100865760003560e01c80639e01dfbb116100595780639e01dfbb14610121578063a37dda2c1461015e578063d0e30db014610189578063d5252dcf14610193578063e289fcb6146101bc57610086565b8063109e94cf1461008b578063565a57ca146100b65780638f853cf4146100e157806396a2eaa61461010a575b600080fd5b34801561009757600080fd5b506100a06101e7565b6040516100ad9190610a50565b60405180910390f35b3480156100c257600080fd5b506100cb61020b565b6040516100d89190610b86565b60405180910390f35b3480156100ed57600080fd5b50610108600480360381019061010391906107d4565b610211565b005b34801561011657600080fd5b5061011f610308565b005b34801561012d57600080fd5b50610148600480360381019061014391906107ab565b61046f565b6040516101559190610b86565b60405180910390f35b34801561016a57600080fd5b50610173610487565b6040516101809190610a50565b60405180910390f35b6101916104ad565b005b34801561019f57600080fd5b506101ba60048036038101906101b591906107d4565b6105d0565b005b3480156101c857600080fd5b506101d161076e565b6040516101de9190610a6b565b60405180910390f35b60008054906101000a900473ffffffffffffffffffffffffffffffffffffffff1681565b60025481565b60008054906101000a900473ffffffffffffffffffffffffffffffffffffffff1673ffffffffffffffffffffffffffffffffffffffff163373ffffffffffffffffffffffffffffffffffffffff161461029f576040517f08c379a000000000000000000000000000000000000000000000000000000000815260040161029690610b06565b60405180910390fd5b8060046000600160009054906101000a900473ffffffffffffffffffffffffffffffffffffffff1673ffffffffffffffffffffffffffffffffffffffff1673ffffffffffffffffffffffffffffffffffffffff1681526020019081526020016000208190555050565b600160009054906101000a900473ffffffffffffffffffffffffffffffffffffffff1673ffffffffffffffffffffffffffffffffffffffff163373ffffffffffffffffffffffffffffffffffffffff1614610398576040517f08c379a000000000000000000000000000000000000000000000000000000000815260040161038f90610b66565b60405180910390fd5b600360009054906101000a900460ff166103e7576040517f08c379a00000000000000000000000000000000000000000000000000000000081526004016103de90610b26565b60405180910390fd5b6000600360006101000a81548160ff021916908315150217905550600160009054906101000a900473ffffffffffffffffffffffffffffffffffffffff1673ffffffffffffffffffffffffffffffffffffffff166108fc6002549081150290604051600060405180830381858888f1935050505015801561046c573d6000803e3d6000fd5b50565b60046020528060005260406000206000915090505481565b600160009054906101000a900473ffffffffffffffffffffffffffffffffffffffff1681565b60008054906101000a900473ffffffffffffffffffffffffffffffffffffffff1673ffffffffffffffffffffffffffffffffffffffff163373ffffffffffffffffffffffffffffffffffffffff161461053b576040517f08c379a000000000000000000000000000000000000000000000000000000000815260040161053290610ae6565b60405180910390fd5b600254341461057f576040517f08c379a000000000000000000000000000000000000000000000000000000000815260040161057690610b46565b60405180910390fd5b600360009054906101000a900460ff166105ce576040517f08c379a00000000000000000000000000000000000000000000000000000000081526004016105c590610b26565b60405180910390fd5b565b60008054906101000a900473ffffffffffffffffffffffffffffffffffffffff1673ffffffffffffffffffffffffffffffffffffffff163373ffffffffffffffffffffffffffffffffffffffff1614806106775750600160009054906101000a900473ffffffffffffffffffffffffffffffffffffffff1673ffffffffffffffffffffffffffffffffffffffff163373ffffffffffffffffffffffffffffffffffffffff16145b6106b6576040517f08c379a00000000000000000000000000000000000000000000000000000000081526004016106ad90610a86565b60405180910390fd5b600360009054906101000a900460ff1615610706576040517f08c379a00000000000000000000000000000000000000000000000000000000081526004016106fd90610ac6565b60405180910390fd5b60008111610749576040517f08c379a000000000000000000000000000000000000000000000000000000000815260040161074090610aa6565b60405180910390fd5b806002819055506001600360006101000a81548160ff02191690831515021790555050565b600360009054906101000a900460ff1681565b60008135905061079081610bfa565b92915050565b6000813590506107a581610c11565b92915050565b6000602082840312156107bd57600080fd5b60006107cb84828501610781565b91505092915050565b6000602082840312156107e657600080fd5b60006107f484828501610796565b91505092915050565b61080681610bb2565b82525050565b61081581610bc4565b82525050565b6000610828600c83610ba1565b91507f556e617574686f72697a656400000000000000000000000000000000000000006000830152602082019050919050565b6000610868601d83610ba1565b91507f416d6f756e74206d7573742062652067726561746572207468616e20300000006000830152602082019050919050565b60006108a8601883610ba1565b91507f436f6e7472616374206973207374696c6c2061637469766500000000000000006000830152602082019050919050565b60006108e8601783610ba1565b91507f4f6e6c7920636c69656e742063616e206465706f7369740000000000000000006000830152602082019050919050565b6000610928601d83610ba1565b91507f4f6e6c7920636c69656e742063616e206769766520666565646261636b0000006000830152602082019050919050565b6000610968601683610ba1565b91507f436f6e7472616374206973206e6f7420616374697665000000000000000000006000830152602082019050919050565b60006109a8601083610ba1565b91507f496e636f727265637420616d6f756e74000000000000000000000000000000006000830152602082019050919050565b60006109e8602183610ba1565b91507f4f6e6c7920667265656c616e6365722063616e20636f6d706c65746520776f7260008301527f6b000000000000000000000000000000000000000000000000000000000000006020830152604082019050919050565b610a4a81610bf0565b82525050565b6000602082019050610a6560008301846107fd565b92915050565b6000602082019050610a80600083018461080c565b92915050565b60006020820190508181036000830152610a9f8161081b565b9050919050565b60006020820190508181036000830152610abf8161085b565b9050919050565b60006020820190508181036000830152610adf8161089b565b9050919050565b60006020820190508181036000830152610aff816108db565b9050919050565b60006020820190508181036000830152610b1f8161091b565b9050919050565b60006020820190508181036000830152610b3f8161095b565b9050919050565b60006020820190508181036000830152610b5f8161099b565b9050919050565b60006020820190508181036000830152610b7f816109db565b9050919050565b6000602082019050610b9b6000830184610a41565b92915050565b600082825260208201905092915050565b6000610bbd82610bd0565b9050919050565b60008115159050919050565b600073ffffffffffffffffffffffffffffffffffffffff82169050919050565b6000819050919050565b610c0381610bb2565b8114610c0e57600080fd5b50565b610c1a81610bf0565b8114610c2557600080fd5b5056fea26469706673582212209ff864f6b411d97729cf5cf3de8d96d789a0892d91bee1f1f8d30cc76208aefc64736f6c63430008000033",
    "immutableReferences": {},
    "source": "// SPDX-License-Identifier: MIT\r\npragma solidity ^0.8.0;\r\n\r\ncontract FreelanceServiceManagement {\r\n    address public client;\r\n    address public freelancer;\r\n    uint public contractAmount;\r\n    bool public contractActive;\r\n    mapping(address => uint) public ratings;\r\n\r\n    // Constructor to initialize contract with client, freelancer, and contract amount.\r\n    constructor(address _freelancer, uint _amount) {\r\n        client = msg.sender;\r\n        freelancer = _freelancer;\r\n        contractAmount = _amount;\r\n        contractActive = true;\r\n    }\r\n\r\n    // Client deposits contract amount to the contract.\r\n    function deposit() external payable {\r\n        require(msg.sender == client, \"Only client can deposit\");\r\n        require(msg.value == contractAmount, \"Incorrect amount\");\r\n        require(contractActive, \"Contract is not active\");\r\n    }\r\n\r\n    // Freelancer completes work and receives payment.\r\n    function completeWork() external {\r\n        require(msg.sender == freelancer, \"Only freelancer can complete work\");\r\n        require(contractActive, \"Contract is not active\");\r\n        contractActive = false;\r\n        payable(freelancer).transfer(contractAmount);\r\n    }\r\n\r\n    // Client renews contract with a new amount.\r\n    function renewContract(uint _newAmount) external {\r\n        require(\r\n            msg.sender == client || msg.sender == freelancer,\r\n            \"Unauthorized\"\r\n        );\r\n        require(!contractActive, \"Contract is still active\");\r\n        require(_newAmount > 0, \"Amount must be greater than 0\");\r\n        contractAmount = _newAmount;\r\n        contractActive = true;\r\n    }\r\n\r\n    // Client provides feedback to the freelancer.\r\n    function giveFeedback(uint _rating) external {\r\n        require(msg.sender == client, \"Only client can give feedback\");\r\n        ratings[freelancer] = _rating;\r\n    }\r\n}\r\n",
    "sourcePath": "C:\\Users\\myadw\\OneDrive\\Desktop\\Truffle_Project\\contracts\\assignment.sol",
    "compiler": {
        "name": "solc",
        "version": "0.8.0+commit.c7dfd78e.Emscripten.clang"
    },
    "schemaVersion": "3.4.16",
    "updatedAt": "2024-03-25T22:54:03.225Z",
    "networkType": "ethereum",
    "devdoc": {
        "kind": "dev",
        "methods": {},
        "version": 1
    },
    "userdoc": {
        "kind": "user",
        "methods": {},
        "version": 1
    }
}