{
  "contractName": "FreelanceServiceManagement",
  "abi": [
    {
      "inputs": [
        {
          "internalType": "address",
          "name": "_freelancer",
          "type": "address"
        },
        {
          "internalType": "uint256",
          "name": "_amount",
          "type": "uint256"
        }
      ],
      "stateMutability": "nonpayable",
      "type": "constructor"
    },
    {
      "anonymous": false,
      "inputs": [
        {
          "indexed": true,
          "internalType": "address",
          "name": "client",
          "type": "address"
        },
        {
          "indexed": false,
          "internalType": "uint256",
          "name": "newAmount",
          "type": "uint256"
        }
      ],
      "name": "ContractRenewed",
      "type": "event"
    },
    {
      "anonymous": false,
      "inputs": [
        {
          "indexed": true,
          "internalType": "address",
          "name": "client",
          "type": "address"
        },
        {
          "indexed": false,
          "internalType": "uint256",
          "name": "amount",
          "type": "uint256"
        }
      ],
      "name": "DepositReceived",
      "type": "event"
    },
    {
      "anonymous": false,
      "inputs": [
        {
          "indexed": true,
          "internalType": "address",
          "name": "client",
          "type": "address"
        },
        {
          "indexed": false,
          "internalType": "uint256",
          "name": "rating",
          "type": "uint256"
        }
      ],
      "name": "FeedbackGiven",
      "type": "event"
    },
    {
      "anonymous": false,
      "inputs": [
        {
          "indexed": true,
          "internalType": "address",
          "name": "freelancer",
          "type": "address"
        },
        {
          "indexed": false,
          "internalType": "uint256",
          "name": "amount",
          "type": "uint256"
        }
      ],
      "name": "WorkCompleted",
      "type": "event"
    },
    {
      "inputs": [],
      "name": "client",
      "outputs": [
        {
          "internalType": "address",
          "name": "",
          "type": "address"
        }
      ],
      "stateMutability": "view",
      "type": "function",
      "constant": true
    },
    {
      "inputs": [],
      "name": "contractActive",
      "outputs": [
        {
          "internalType": "bool",
          "name": "",
          "type": "bool"
        }
      ],
      "stateMutability": "view",
      "type": "function",
      "constant": true
    },
    {
      "inputs": [],
      "name": "contractAmount",
      "outputs": [
        {
          "internalType": "uint256",
          "name": "",
          "type": "uint256"
        }
      ],
      "stateMutability": "view",
      "type": "function",
      "constant": true
    },
    {
      "inputs": [],
      "name": "freelancer",
      "outputs": [
        {
          "internalType": "address",
          "name": "",
          "type": "address"
        }
      ],
      "stateMutability": "view",
      "type": "function",
      "constant": true
    },
    {
      "inputs": [
        {
          "internalType": "address",
          "name": "",
          "type": "address"
        }
      ],
      "name": "ratings",
      "outputs": [
        {
          "internalType": "uint256",
          "name": "",
          "type": "uint256"
        }
      ],
      "stateMutability": "view",
      "type": "function",
      "constant": true
    },
    {
      "inputs": [],
      "name": "deposit",
      "outputs": [],
      "stateMutability": "payable",
      "type": "function",
      "payable": true
    },
    {
      "inputs": [],
      "name": "completeWork",
      "outputs": [],
      "stateMutability": "nonpayable",
      "type": "function"
    },
    {
      "inputs": [
        {
          "internalType": "uint256",
          "name": "_newAmount",
          "type": "uint256"
        }
      ],
      "name": "renewContract",
      "outputs": [],
      "stateMutability": "nonpayable",
      "type": "function"
    },
    {
      "inputs": [
        {
          "internalType": "uint256",
          "name": "_rating",
          "type": "uint256"
        }
      ],
      "name": "giveFeedback",
      "outputs": [],
      "stateMutability": "nonpayable",
      "type": "function"
    }
  ],
  "bytecode": "0x60806040523480156200001157600080fd5b5060405162000f1338038062000f13833981810160405281019062000037919062000110565b336000806101000a81548173ffffffffffffffffffffffffffffffffffffffff021916908373ffffffffffffffffffffffffffffffffffffffff16021790555081600160006101000a81548173ffffffffffffffffffffffffffffffffffffffff021916908373ffffffffffffffffffffffffffffffffffffffff160217905550806002819055506001600360006101000a81548160ff0219169083151502179055505050620001c3565b600081519050620000f3816200018f565b92915050565b6000815190506200010a81620001a9565b92915050565b600080604083850312156200012457600080fd5b60006200013485828601620000e2565b92505060206200014785828601620000f9565b9150509250929050565b60006200015e8262000165565b9050919050565b600073ffffffffffffffffffffffffffffffffffffffff82169050919050565b6000819050919050565b6200019a8162000151565b8114620001a657600080fd5b50565b620001b48162000185565b8114620001c057600080fd5b50565b610d4080620001d36000396000f3fe6080604052600436106100865760003560e01c80639e01dfbb116100595780639e01dfbb14610121578063a37dda2c1461015e578063d0e30db014610189578063d5252dcf14610193578063e289fcb6146101bc57610086565b8063109e94cf1461008b578063565a57ca146100b65780638f853cf4146100e157806396a2eaa61461010a575b600080fd5b34801561009757600080fd5b506100a06101e7565b6040516100ad9190610b32565b60405180910390f35b3480156100c257600080fd5b506100cb61020b565b6040516100d89190610c68565b60405180910390f35b3480156100ed57600080fd5b50610108600480360381019061010391906108b6565b610211565b005b34801561011657600080fd5b5061011f610356565b005b34801561012d57600080fd5b506101486004803603810190610143919061088d565b61050d565b6040516101559190610c68565b60405180910390f35b34801561016a57600080fd5b50610173610525565b6040516101809190610b32565b60405180910390f35b61019161054b565b005b34801561019f57600080fd5b506101ba60048036038101906101b591906108b6565b6106bc565b005b3480156101c857600080fd5b506101d1610850565b6040516101de9190610b4d565b60405180910390f35b60008054906101000a900473ffffffffffffffffffffffffffffffffffffffff1681565b60025481565b60008054906101000a900473ffffffffffffffffffffffffffffffffffffffff1673ffffffffffffffffffffffffffffffffffffffff163373ffffffffffffffffffffffffffffffffffffffff161461029f576040517f08c379a000000000000000000000000000000000000000000000000000000000815260040161029690610be8565b60405180910390fd5b8060046000600160009054906101000a900473ffffffffffffffffffffffffffffffffffffffff1673ffffffffffffffffffffffffffffffffffffffff1673ffffffffffffffffffffffffffffffffffffffff168152602001908152602001600020819055503373ffffffffffffffffffffffffffffffffffffffff167f2ddf8e2fcb169904c1fd5fade7c8ca4cb6393ab9da83870190a24a7be3b2770b8260405161034b9190610c68565b60405180910390a250565b600160009054906101000a900473ffffffffffffffffffffffffffffffffffffffff1673ffffffffffffffffffffffffffffffffffffffff163373ffffffffffffffffffffffffffffffffffffffff16146103e6576040517f08c379a00000000000000000000000000000000000000000000000000000000081526004016103dd90610c48565b60405180910390fd5b600360009054906101000a900460ff16610435576040517f08c379a000000000000000000000000000000000000000000000000000000000815260040161042c90610c08565b60405180910390fd5b6000600360006101000a81548160ff021916908315150217905550600160009054906101000a900473ffffffffffffffffffffffffffffffffffffffff1673ffffffffffffffffffffffffffffffffffffffff166108fc6002549081150290604051600060405180830381858888f193505050501580156104ba573d6000803e3d6000fd5b503373ffffffffffffffffffffffffffffffffffffffff167f3841988603bba0118f0e29fd384a83630cf4db053fb024823cc12864304bc4d46002546040516105039190610c68565b60405180910390a2565b60046020528060005260406000206000915090505481565b600160009054906101000a900473ffffffffffffffffffffffffffffffffffffffff1681565b60008054906101000a900473ffffffffffffffffffffffffffffffffffffffff1673ffffffffffffffffffffffffffffffffffffffff163373ffffffffffffffffffffffffffffffffffffffff16146105d9576040517f08c379a00000000000000000000000000000000000000000000000000000000081526004016105d090610bc8565b60405180910390fd5b600254341461061d576040517f08c379a000000000000000000000000000000000000000000000000000000000815260040161061490610c28565b60405180910390fd5b600360009054906101000a900460ff1661066c576040517f08c379a000000000000000000000000000000000000000000000000000000000815260040161066390610c08565b60405180910390fd5b3373ffffffffffffffffffffffffffffffffffffffff167f9936746a4565f9766fa768f88f56a7487c78780ac179562773d1c75c5269537e346040516106b29190610c68565b60405180910390a2565b60008054906101000a900473ffffffffffffffffffffffffffffffffffffffff1673ffffffffffffffffffffffffffffffffffffffff163373ffffffffffffffffffffffffffffffffffffffff161461074a576040517f08c379a000000000000000000000000000000000000000000000000000000000815260040161074190610b68565b60405180910390fd5b600360009054906101000a900460ff161561079a576040517f08c379a000000000000000000000000000000000000000000000000000000000815260040161079190610ba8565b60405180910390fd5b600081116107dd576040517f08c379a00000000000000000000000000000000000000000000000000000000081526004016107d490610b88565b60405180910390fd5b806002819055506001600360006101000a81548160ff0219169083151502179055503373ffffffffffffffffffffffffffffffffffffffff167fba9ba0a7933a496fb639fbc68adc3d771721f7628422c4b245814e438fc8fa71826040516108459190610c68565b60405180910390a250565b600360009054906101000a900460ff1681565b60008135905061087281610cdc565b92915050565b60008135905061088781610cf3565b92915050565b60006020828403121561089f57600080fd5b60006108ad84828501610863565b91505092915050565b6000602082840312156108c857600080fd5b60006108d684828501610878565b91505092915050565b6108e881610c94565b82525050565b6108f781610ca6565b82525050565b600061090a600c83610c83565b91507f556e617574686f72697a656400000000000000000000000000000000000000006000830152602082019050919050565b600061094a601d83610c83565b91507f416d6f756e74206d7573742062652067726561746572207468616e20300000006000830152602082019050919050565b600061098a601883610c83565b91507f436f6e7472616374206973207374696c6c2061637469766500000000000000006000830152602082019050919050565b60006109ca601783610c83565b91507f4f6e6c7920636c69656e742063616e206465706f7369740000000000000000006000830152602082019050919050565b6000610a0a601d83610c83565b91507f4f6e6c7920636c69656e742063616e206769766520666565646261636b0000006000830152602082019050919050565b6000610a4a601683610c83565b91507f436f6e7472616374206973206e6f7420616374697665000000000000000000006000830152602082019050919050565b6000610a8a601083610c83565b91507f496e636f727265637420616d6f756e74000000000000000000000000000000006000830152602082019050919050565b6000610aca602183610c83565b91507f4f6e6c7920667265656c616e6365722063616e20636f6d706c65746520776f7260008301527f6b000000000000000000000000000000000000000000000000000000000000006020830152604082019050919050565b610b2c81610cd2565b82525050565b6000602082019050610b4760008301846108df565b92915050565b6000602082019050610b6260008301846108ee565b92915050565b60006020820190508181036000830152610b81816108fd565b9050919050565b60006020820190508181036000830152610ba18161093d565b9050919050565b60006020820190508181036000830152610bc18161097d565b9050919050565b60006020820190508181036000830152610be1816109bd565b9050919050565b60006020820190508181036000830152610c01816109fd565b9050919050565b60006020820190508181036000830152610c2181610a3d565b9050919050565b60006020820190508181036000830152610c4181610a7d565b9050919050565b60006020820190508181036000830152610c6181610abd565b9050919050565b6000602082019050610c7d6000830184610b23565b92915050565b600082825260208201905092915050565b6000610c9f82610cb2565b9050919050565b60008115159050919050565b600073ffffffffffffffffffffffffffffffffffffffff82169050919050565b6000819050919050565b610ce581610c94565b8114610cf057600080fd5b50565b610cfc81610cd2565b8114610d0757600080fd5b5056fea26469706673582212208453e96554d32b45caa724b1f7d23a07249697af196718ac8f7fdc9650aeadb564736f6c63430008000033",
  "immutableReferences": {},
  "source": "// SPDX-License-Identifier: MIT\r\npragma solidity ^0.8.0;\r\n\r\ncontract FreelanceServiceManagement {\r\n    address public client;\r\n    address public freelancer;\r\n    uint public contractAmount;\r\n    bool public contractActive;\r\n    mapping(address => uint) public ratings;\r\n\r\n    event DepositReceived(address indexed client, uint amount);\r\n    event WorkCompleted(address indexed freelancer, uint amount);\r\n    event ContractRenewed(address indexed client, uint newAmount);\r\n    event FeedbackGiven(address indexed client, uint rating);\r\n\r\n    constructor(address _freelancer, uint _amount) {\r\n        client = msg.sender;\r\n        freelancer = _freelancer;\r\n        contractAmount = _amount;\r\n        contractActive = true;\r\n    }\r\n\r\n    function deposit() external payable {\r\n        require(msg.sender == client, \"Only client can deposit\");\r\n        require(msg.value == contractAmount, \"Incorrect amount\");\r\n        require(contractActive, \"Contract is not active\");\r\n        emit DepositReceived(msg.sender, msg.value);\r\n    }\r\n\r\n    function completeWork() external {\r\n        require(msg.sender == freelancer, \"Only freelancer can complete work\");\r\n        require(contractActive, \"Contract is not active\");\r\n        contractActive = false;\r\n        payable(freelancer).transfer(contractAmount);\r\n        emit WorkCompleted(msg.sender, contractAmount);\r\n    }\r\n\r\n    function renewContract(uint _newAmount) external {\r\n        require(msg.sender == client, \"Unauthorized\");\r\n        require(!contractActive, \"Contract is still active\");\r\n        require(_newAmount > 0, \"Amount must be greater than 0\");\r\n        contractAmount = _newAmount;\r\n        contractActive = true;\r\n        emit ContractRenewed(msg.sender, _newAmount);\r\n    }\r\n\r\n    function giveFeedback(uint _rating) external {\r\n        require(msg.sender == client, \"Only client can give feedback\");\r\n        ratings[freelancer] = _rating;\r\n        emit FeedbackGiven(msg.sender, _rating);\r\n    }\r\n}\r\n",
  "sourcePath": "C:\\Users\\myadw\\OneDrive\\Desktop\\Truffle_Project\\contracts\\assignment.sol",
  "compiler": {
    "name": "solc",
    "version": "0.8.0+commit.c7dfd78e.Emscripten.clang"
  },
  "schemaVersion": "3.4.16",
  "updatedAt": "2024-04-11T07:26:47.097Z",
  "networkType": "ethereum",
  "devdoc": {
    "kind": "dev",
    "methods": {},
    "version": 1
  },
  "userdoc": {
    "kind": "user",
    "methods": {},
    "version": 1
  }
}